:100000000C9446000C9465000C9465000C946500FB
:100010000C9465000C9465000C9465000C946500CC
:100020000C9465000C9465000C9465000C946500BC
:100030000C9465000C94D9010C9465000C94650037
:100040000C9465000C9465000C9465000C9465009C
:100050000C9465000C9465000C9465000C9465008C
:100060000C9465000C9465000C9465000C9465007C
:100070000C9465000C9465000C9465000C9465006C
:100080000C9465000C9465000C94650011241FBE4F
:10009000CFEFD0E4DEBFCDBF11E0A0E0B1E0ECEFE8
:1000A000F9E000E00BBF02C007900D92AC34B1073D
:1000B000D9F721E0ACE4B1E001C01D92AE36B20741
:1000C000E1F70E94D5030C94FC040C940000CF933C
:1000D000DF93CDB7DEB781E00E948E000000DF9194
:1000E000CF910895CF93DF93CDB7DEB784E690E04C
:1000F0000E94320188E30E948E0086E00E948E00FA
:100100008FE00E948E0081E00E948E008AE090E0E5
:100110000E9432010000DF91CF910895CF93DF93C9
:100120001F92CDB7DEB789838BE290E02BE230E0FF
:10013000F90120812F7BFC01208385E290E0298159
:10014000FC0120838BE290E02BE230E0F90120817A
:100150002068FC01208300008BE290E02BE230E07D
:10016000F90120812F77FC01208382E090E00E943A
:10017000320100000F90DF91CF910895CF93DF936C
:100180001F92CDB7DEB789838BE290E02BE230E09F
:10019000F90120812064FC01208385E290E029811F
:1001A000FC0120838BE290E02BE230E0F90120811A
:1001B0002068FC01208300008BE290E02BE230E01D
:1001C000F90120812F77FC01208381E090E00E94DB
:1001D000320100000F90DF91CF910895CF93DF930C
:1001E00000D000D0CDB7DEB78A837C836B830E94BA
:1001F00067008A81898311C0898191E0980F998372
:100200000E941B018B819C819C012F5F3F4F3C838F
:100210002B83FC0180810E94BE008B819C81FC01AC
:100220008081882349F700000F900F900F900F9066
:10023000DF91CF910895CF93DF931F92CDB7DEB7B3
:1002400089838981813128F4898181580E948E00B7
:1002500004C0898181550E948E0000000F90DF91BB
:10026000CF910895CF93DF9300D000D000D0CDB7C9
:10027000DEB79E838D831A82198213C01C821B8273
:1002800006C000008B819C8101969C838B838B81AF
:100290009C8187309340ACF389819A8101969A833F
:1002A000898329813A818D819E812817390734F30A
:1002B000000026960FB6F894DEBF0FBECDBFDF91CB
:1002C000CF910895CF93DF9300D01F92CDB7DEB7C3
:1002D00089837B836A8389818A3031F48A819B8117
:1002E000BC018DE00E94620180EC90E0FC01808105
:1002F000882F90E080729927892BB1F386EC90E0EB
:100300002981FC01208380E090E00F900F900F90F6
:10031000DF91CF910895CF93DF93CDB7DEB781E81A
:1003200090E02BE0FC01208388E890E02DE730E0AE
:10033000FC01318320838FE690E022E0FC012083E2
:1003400084E890E0FC011182108280910E0190916E
:100350000F01A0911001B091110180934D01909374
:100360004E01A0934F01B09350018FE590E02FE52F
:1003700030E0F90120812068FC0120830000DF913A
:10038000CF910895CF93DF93CDB7DEB781E890E0AA
:10039000FC0110820000DF91CF910895CF93DF938D
:1003A000CDB7DEB781E080934C010000DF91CF91A3
:1003B00008951F920F9200905F000F9211240090F9
:1003C0005B000F922F933F934F935F936F937F93B5
:1003D0008F939F93AF93BF93EF93FF93CF93DF934D
:1003E000CDB7DEB780914D0190914E01A0914F01A4
:1003F000B09150010197A109B10980934D019093EB
:100400004E01A0934F01B093500180914D01909106
:100410004E01A0914F01B0915001892B8A2B8B2B5B
:1004200091F40E94CE0180910E0190910F01A09154
:100430001001B091110180934D0190934E01A09352
:100440004F01B09350010000DF91CF91FF91EF91E8
:10045000BF91AF919F918F917F916F915F914F91DC
:100460003F912F910F9000925B000F9000925F00E0
:100470000F901F901895CF93DF9300D000D0CDB789
:10048000DEB769837A838B839C8389819A81AB8170
:10049000BC8180930E0190930F01A0931001B09343
:1004A000110180910E0190910F01A0911001B09166
:1004B000110180934D0190934E01A0934F01B09391
:1004C000500100000F900F900F900F90DF91CF918F
:1004D0000895CF93DF9300D0CDB7DEB789836A83C9
:1004E0008A81282F30E081E090E002C0880F991FB8
:1004F0002A95E2F7982F898189230F900F90DF9139
:10050000CF910895CF93DF93CDB7DEB788E290E027
:100510002FEEFC012083000086E290E0FC01808148
:1005200060E00E946902882311F481E3B8C086E28A
:1005300090E0FC01808161E00E946902882311F44F
:1005400084E3ADC086E290E0FC01808162E00E941D
:100550006902882311F487E3A2C086E290E0FC01DF
:10056000808163E00E946902882311F48AE297C0C7
:1005700088E290E02FEDFC012083000086E290E00D
:10058000FC01808160E00E946902882311F482E30B
:1005900086C086E290E0FC01808161E00E946902F1
:1005A000882311F485E37BC086E290E0FC01808122
:1005B00062E00E946902882311F488E370C086E239
:1005C00090E0FC01808163E00E946902882311F4BD
:1005D00080E365C088E290E02FEBFC0120830000FF
:1005E00086E290E0FC01808160E00E94690288233D
:1005F00011F483E354C086E290E0FC01808161E065
:100600000E946902882311F486E349C086E290E0E3
:10061000FC01808162E00E946902882311F489E371
:100620003EC086E290E0FC01808163E00E946902A6
:10063000882311F483E233C088E290E02FE7FC01C5
:100640002083000086E290E0FC01808160E00E944F
:100650006902882311F481E422C086E290E0FC0163
:10066000808161E00E946902882311F482E417C04E
:1006700086E290E0FC01808162E00E9469028823AA
:1006800011F483E40CC086E290E0FC01808163E019
:100690000E946902882311F484E401C080E0DF91A4
:1006A000CF910895CF93DF9300D01F92CDB7DEB7DF
:1006B0009B838A830E94820289838A819B81813005
:1006C000910569F082309105D1F0892B39F581E0EF
:1006D00090E09B838A831092690119821FC08981EF
:1006E000882329F481E090E09B838A8317C082E00D
:1006F00090E09B838A838981809369010FC09091E8
:1007000069018981981729F482E090E09B838A83AC
:1007100004C081E090E09B838A8300008A819B81F2
:100720000F900F900F90DF91CF910895CF93DF93AB
:1007300000D0CDB7DEB79A83898389819A818130D1
:10074000910561F082309105C1F0892B39F582E085
:1007500090E09A8389830E94670020C081E00E9414
:100760001B01809169010E94BE0082E00E941B0172
:1007700081E090E09A83898311C081E00E941B018F
:1007800080916901882329F482E090E09A8389832B
:1007900004C081E090E09A838983000089819A8176
:1007A0000F900F90DF91CF910895CF93DF9300D0FA
:1007B00000D000D0CDB7DEB781E290E0FC0110821E
:1007C00082E290E02FEFFC01208384E290E02FEFA3
:1007D000FC01208385E290E0FC01108287E290E03A
:1007E00020EFFC01208388E290E02FE0FC012083D1
:1007F0008AE290E02FEFFC0120838BE290E0FC0185
:10080000108288EC90E0A0E0B0E08B839C83AD8305
:10081000BE831092520188EC90E0A0E0B0E080939B
:10082000530190935401A0935501B09356018091C8
:10083000530190915401A0915501B09156018093BC
:10084000570190935801A0935901B0935A0182E542
:1008500093E090935C0180935B0110925D0188ECC2
:1008600090E0A0E0B0E080935E0190935F01A093E0
:100870006001B093610180915E0190915F01A09150
:100880006001B09161018093620190936301A09334
:100890006401B093650186E993E0909367018093CA
:1008A00066018B819C81AD81BE81BC01CD010E941E
:1008B0003B020E948B010E9472000E9467001A8214
:1008C000198288C029813A814BE0429FC001439F31
:1008D000900D1124895A9E4FFC0120813181428163
:1008E000538169817A81EBE0E69FC001E79F900D1B
:1008F00011248D5A9E4FFC0180819181A281B38188
:10090000281739074A075B07D0F129813A814BE064
:10091000429FC001439F900D1124855A9E4FFC01B8
:100920002081318149815A816BE0649FC001659FBC
:10093000900D11248E5A9E4FFC018081082E000CD0
:10094000990BF9010995582F29813A814BE0429F73
:10095000C001439F900D11248E5A9E4FFC0150837D
:1009600029813A814BE0429FC001439F900D1124A1
:10097000895A9E4FFC0110821182128213822981B2
:100980003A814BE0429FC001439F900D1124895A48
:100990009E4FFC0120813181428153818B819C815A
:1009A000AD81BE81820F931FA41FB51F49815A815B
:1009B0006BE0649F9001659F300D1124295A3E4FD2
:1009C000F90180839183A283B38389819A810196FF
:1009D0009A83898380911201282F30E089819A813E
:1009E000821793070CF46ECF000080914C0188238E
:0C09F000E1F310924C0163CFF894FFCFAC
:1009FC000000000200000000620100000000010085
:100A0C000000022020202020202020202020202038
:100A1C0020202020435331323042206973204C6512
:100A2C0067656E642E2E2E207761697420666F7256
:0C0A3C002069742044415259210036000A
:00000001FF
